:100000000C9463000C948B000C948B000C948B006C
:100010000C948B000C948B000C948B000C948B0034
:100020000C948B000C948B000C948B000C948B0024
:100030000C948B000C948B000C948B000C948B0014
:100040000C948E020C948B000C94FE020C94D8023B
:100050000C948B000C948B000C948B000C948B00F4
:100060000C948B000C948B000000000024002700EF
:100070002A000000000023002600290000000000E4
:10008000250028002B0004040404040404040202D4
:100090000202020203030303030301020408102007
:1000A0004080010204081020010204081020000012
:1000B0000008000201000003040700000000000027
:1000C000000030033F0511241FBECFEFD8E0DEBF94
:1000D000CDBF22E0AEECB1E001C01D92A038B20766
:1000E000E1F711E0A0E0B1E0EAE1FFE002C0059035
:1000F0000D92AE3CB107D9F710E0C2E6D0E004C0E3
:100100002197FE010E947F05C136D107C9F70E94E1
:10011000A4030C9480070C940000833081F028F431
:10012000813099F08230A9F008958730A9F08830A5
:10013000C9F08430B1F4809180008F7D03C080913C
:1001400080008F7780938000089584B58F7784BD79
:10015000089584B58F7DFBCF8091B0008F77809319
:10016000B00008958091B0008F7DF9CF1F93CF9399
:10017000DF93E5EBF0E09491E1EAF0E0D491EDE873
:10018000F0E0C491CC23B9F0182F992319F0892FEE
:100190000E948D00EC2FF0E0EE0FFF1FE458FF4FA0
:1001A000A591B4918FB7F894EC91111108C0D09536
:1001B000DE23DC938FBFDF91CF911F910895DE2B5B
:1001C000F8CF3FB7F8948091D5019091D601A091D6
:1001D000D701B091D80126B5A89B05C02F3F19F0D3
:1001E0000196A11DB11D3FBFBA2FA92F982F8827B7
:1001F000BC01CD01620F711D811D911D42E0660F92
:10020000771F881F991F4A95D1F708958F929F9263
:10021000AF92BF92CF92DF92EF92FF924B015C01BF
:100220000E94E1006B017C010E94E1006C197D09D4
:100230008E099F09683E734081059105A8F321E06E
:10024000821A9108A108B10888EEC80E83E0D81E72
:10025000E11CF11C81149104A104B10429F7FF9061
:10026000EF90DF90CF90BF90AF909F908F900895C8
:10027000AF92BF92CF92DF92EF92FF920F931F93B4
:10028000CF93DF936C017B018B01040F151FEB01F2
:100290005E01AE18BF08C017D10759F06991D601A9
:1002A000ED91FC910190F081E02DC6010995892B1B
:1002B00079F7C501DF91CF911F910F91FF90EF90DA
:1002C000DF90CF90BF90AF900895FC01538D448D87
:1002D000252F30E0842F90E0821B930B541710F0F1
:1002E000CF96089501970895FC01918D828D9817FE
:1002F00061F0A28DAE0FBF2FB11D5D968C91928DD6
:100300009F5F9F73928F90E008958FEF9FEF089506
:10031000FC01918D828D981731F0828DE80FF11DCF
:10032000858D90E008958FEF9FEF0895FC01918DEA
:10033000228D892F90E0805C9F4F821B91098F73E3
:100340009927089589ED91E00E94960121E0892B7B
:1003500009F420E0822F089580E090E0892B29F0B5
:100360000E94A20181110C9400000895FC01A48D4B
:10037000A80FB92FB11DA35ABF4F2C91848D90E0C7
:1003800001968F739927848FA689B7892C93A089AA
:10039000B1898C91837080648C93938D848D981334
:1003A00006C00288F389E02D80818F7D80830895C7
:1003B000EF92FF920F931F93CF93DF93EC0181E0B5
:1003C000888F9B8D8C8D98131AC0E889F98980815C
:1003D00085FF15C09FB7F894EE89FF896083E8898F
:1003E000F98980818370806480839FBF81E090E081
:1003F000DF91CF911F910F91FF90EF900895F62E0E
:100400000B8D10E00F5F1F4F0F731127E02E8C8DA7
:100410008E110CC00FB607FCFACFE889F9898081EC
:1004200085FFF5CFCE010E94B601F1CFEB8DEC0F29
:10043000FD2FF11DE35AFF4FF0829FB7F8940B8F09
:10044000EA89FB8980818062CFCFCF93DF93EC0173
:10045000888D8823B9F0AA89BB89E889F9898C91AC
:1004600085FD03C0808186FD0DC00FB607FCF7CF68
:100470008C9185FFF2CF808185FFEDCFCE010E9468
:10048000B601E9CFDF91CF910895FC0101900020E2
:10049000E9F73197AF01481B590BBC0189ED91E099
:1004A0000C943801CF93DF930E944502EC0188E160
:1004B00091E00E9445028C0F9D1FDF91CF9108951E
:1004C000CF93DF93EC0180917602909177020097B1
:1004D00059F020917802309179022C173D0720F0D5
:1004E00081E0DF91CF910895BE016F5F7F4F0E9441
:1004F000AA06009789F09093770280937602D093B2
:100500007902C093780220917A0230917B02232BEA
:1005100039F7FC011082E4CF80E0E3CF1F920F9205
:100520000FB60F9211242F933F938F939F93AF9306
:10053000BF938091D1019091D201A091D301B0914C
:10054000D4013091D00123E0230F2D3758F50196C7
:10055000A11DB11D2093D0018093D1019093D201B0
:10056000A093D301B093D4018091D5019091D6018D
:10057000A091D701B091D8010196A11DB11D809322
:10058000D5019093D601A093D701B093D801BF9124
:10059000AF919F918F913F912F910F900FBE0F9030
:1005A0001F90189526E8230F0296A11DB11DD2CFEA
:1005B0001F920F920FB60F9211242F933F934F93D8
:1005C0005F936F937F938F939F93AF93BF93EF93BB
:1005D000FF9389ED91E00E94B601FF91EF91BF91E9
:1005E000AF919F918F917F916F915F914F913F91CB
:1005F0002F910F900FBE0F901F9018951F920F9282
:100600000FB60F9211242F938F939F93EF93FF9325
:10061000E091E901F091EA018081E091EF01F09130
:10062000F00182FD1BC090818091F2018F5F8F737A
:100630002091F301821741F0E091F201F0E0E752DE
:10064000FE4F958F8093F201FF91EF919F918F91D3
:100650002F910F900FBE0F901F9018958081F4CFAF
:100660001092DC011092DB0188EE93E0A0E0B0E094
:100670008093DD019093DE01A093DF01B093E00150
:100680008AE091E09093DA018093D90185EC90E0C3
:100690009093E6018093E50184EC90E09093E8016B
:1006A0008093E70180EC90E09093EA018093E90168
:1006B00081EC90E09093EC018093EB0182EC90E070
:1006C0009093EE018093ED0186EC90E09093F00121
:1006D0008093EF011092F2011092F3011092F40155
:1006E0001092F50110927702109276021092790220
:1006F0001092780210927B0210927A0290E080E0D1
:100700000E9460022091760230917702811113C01D
:100710002115310519F0C9010E94210610927702B6
:100720001092760210927B0210927A021092790255
:1007300010927802089510927B0210927A026AE178
:1007400071E0C9010C947907CF93DF9300D0CDB746
:10075000DEB7789484B5826084BD84B5816084BD41
:1007600085B5826085BD85B5816085BD80916E004F
:10077000816080936E001092810080918100826080
:1007800080938100809181008160809381008091BD
:1007900080008160809380008091B10084608093AC
:1007A000B1008091B00081608093B00080917A00A8
:1007B000846080937A0080917A00826080937A00CE
:1007C00080917A00816080937A0080917A008068BD
:1007D00080937A001092C100E091E901F091EA0162
:1007E00082E08083E091E501F091E6011082E091E2
:1007F000E701F091E8018FEC80831092F101E09124
:10080000ED01F091EE0186E08083E091EB01F09143
:10081000EC01808180618083E091EB01F091EC013B
:10082000808188608083E091EB01F091EC01808110
:1008300080688083E091EB01F091EC0180818F7DF5
:1008400080835CE9C52E50E0D52EF601249168E83E
:10085000A62E60E0B62EF50184918823C9F090E0C1
:10086000880F991FFC01E859FF4FA591B491FC0135
:10087000E458FF4F459154913FB7F8949C91822FD3
:10088000809598239C93FA019081892380833FBFB0
:10089000E1EAF0E02491EDE8F0E08491882399F01A
:1008A00090E0880F991FFC01E859FF4FA591B49182
:1008B000FC01E458FF4F859194918FB7F894EC9127
:1008C000E22BEC938FBF80E00E94B6008BE191E0B9
:1008D0000E94520290EB692E90E0792E20E0822E49
:1008E00020E0922EF3018491F6011491F501049118
:1008F000002309F4A5C081110E948D00E02FF0E0D3
:10090000EE0FFF1FEE58FF4FA591B4918C91182365
:1009100009F496C08FE391E00E94520260ED77E007
:1009200080E090E00E94060189ED91E00E9496012E
:10093000181619060CF07EC089ED91E00E94740132
:100940000091CE011091CF010F5F1F4F1093CF0187
:100950000093CE0189831A82E0907A02F0907B02A4
:10096000FFEFEF1AFF0AC7010E946002882399F087
:10097000209176023091770280917A0290917B02E9
:10098000BE016F5F7F4F820F931F0E947907F09225
:100990007B02E0927A020C30110531F68DE691E08F
:1009A0000E94450240917A0250917B02609176024A
:1009B0007091770289ED91E00E94380188E191E021
:1009C0000E94450280917A0290917B02892B09F462
:1009D00046C06AE771E080917602909177020E94AA
:1009E0007007892BE1F587E891E00E94520280E0D0
:1009F0000E94B6001092CF011092CE0190E080E0EC
:100A00000E946002209176023091770281112DC000
:100A10002115310519F0C9010E94210610927702B3
:100A20001092760210927B0210927A021092790252
:100A30001092780268E873E180E090E00E9406017D
:100A400080E00E94B6008114910409F44BCF0E940B
:100A5000A201882309F446CF0E94000043CF87EA11
:100A600091E00E94520281E0C3CF10927B0210926B
:100A70007A026AE171E0C9010E947907DBCF8091B7
:100A8000760290917702009711F00C942106089558
:100A90002F923F924F925F926F927F928F929F928E
:100AA000AF92BF92CF92DF92EF92FF920F931F937C
:100AB000CF93DF93CDB7DEB7CA1BDB0B0FB6F8942D
:100AC000DEBF0FBECDBF09942A88398848885F846D
:100AD0006E847D848C849B84AA84B984C884DF80DE
:100AE000EE80FD800C811B81AA81B981CE0FD11DC2
:100AF0000FB6F894DEBF0FBECDBFED010895EE0F27
:100B0000FF1F0590F491E02D09940F931F93CF934D
:100B1000DF938230910510F482E090E0E0917E0254
:100B2000F0917F0230E020E0B0E0A0E0309799F44F
:100B30002115310509F44AC0281B390B2430310531
:100B4000D8F58A819B816115710589F1FB01938339
:100B50008283FE0111C040815181028113814817B7
:100B60005907E0F04817590799F4109761F0129669
:100B70000C93129713961C933296CF01DF91CF916D
:100B80001F910F91089500937E0210937F02F4CF7E
:100B90002115310551F04217530738F0A901DB0147
:100BA0009A01BD01DF01F801C1CFEF01F9CF9093A8
:100BB0007F0280937E02CDCFFE01E20FF31F81936F
:100BC00091932250310939832883D7CF20917C0219
:100BD00030917D02232B41F42091020130910301D9
:100BE00030937D0220937C0220910001309101011D
:100BF0002115310541F42DB73EB7409104015091C4
:100C00000501241B350BE0917C02F0917D02E21777
:100C1000F307A0F42E1B3F0B2817390778F0AC011F
:100C20004E5F5F4F2417350748F04E0F5F1F5093FC
:100C30007D0240937C02819391939FCFF0E0E0E0AE
:100C40009CCFCF93DF930097E9F0FC01329713829A
:100C50001282A0917E02B0917F02ED0130E020E08F
:100C60001097A1F420813181820F931F20917C0283
:100C700030917D022817390709F061C0F0937D0299
:100C8000E0937C02DF91CF910895EA01CE17DF0750
:100C9000E8F54A815B819E0141155105B1F7E901F3
:100CA000FB83EA8349915991C40FD51FEC17FD07C7
:100CB00061F4808191810296840F951FE9019983E7
:100CC0008883828193819B838A83F0E0E0E012969F
:100CD0008D919C9113970097B9F52D913C911197A7
:100CE000CD010296820F931F20917C0230917D02EC
:100CF0002817390739F6309751F510927F02109274
:100D00007E02B0937D02A0937C02BCCFD383C283CA
:100D100040815181840F951FC817D90761F44E5F38
:100D20005F4F88819981480F591F518340838A8181
:100D30009B81938382832115310509F0B0CFF09315
:100D40007F02E0937E029ECFFD01DC01C0CF1382C3
:100D50001282D7CFB0E0A0E0E0EBF6E00C944A05B9
:100D60008C01009751F4CB010E9485058C01C801CC
:100D7000CDB7DEB7E0E10C946605FC01E60FF71F86
:100D80009C0122503109E217F30708F49DC0D901F4
:100D9000CD91DC911197C617D70798F0C530D105D2
:100DA00030F3CE0104978617970708F3C61BD70BBD
:100DB0002297C193D1936D937C93CF010E9421061A
:100DC000D6CF5B01AC1ABD0A4C018C0E9D1EA091C2
:100DD0007E02B0917F02512C412CF12CE12C109716
:100DE00031F580917C0290917D028815990509F07A
:100DF0005CC04616570608F058C0809100019091DB
:100E00000101009741F48DB79EB7409104015091C4
:100E10000501841B950BE817F90708F055C0F093FE
:100E20007D02E0937C02F90171836083A0CF8D91F4
:100E30009C91119712966C90129713967C90139731
:100E4000A815B90559F56C0142E0C40ED11CCA14AD
:100E5000DB0420F1AC014A195B09DA0112961597FF
:100E600080F06282738251834083D9016D937C93B9
:100E7000E114F10471F0D7011396FC93EE931297ED
:100E800076CF22968C0F9D1FF90191838083F30109
:100E9000EFCFF0937F02E0937E0269CF48165906A8
:100EA00008F42C017D01D3019ACFCB010E94850566
:100EB0007C01009749F0AE01B8010E946707C801A4
:100EC0000E942106870153CF10E000E050CFFB01C4
:100ED000DC0102C001900D9241505040D8F70895B6
:100EE000FB01DC018D91019080190110D9F3990B60
:100EF0000895FB01DC0101900D920020E1F70895B7
:100F000010E0C2E6D0E004C0FE010E947F052196F9
:0A0F1000C336D107C9F7F894FFCFEC
:100F1A0000008002800000000000D801380165014D
:100F2A0025029601740188010D0A005379737465CC
:100F3A006D2052656164792E2057616974696E6704
:100F4A0020666F72206D6F74696F6E2E2E2E004DA3
:100F5A006F74696F6E2064657465637465642120BB
:100F6A00506C65617365207363616E20796F757269
:100F7A002052464944205441472E2E2E0053636185
:100F8A006E6E65642049443A20004142313233345E
:100F9A003536373839410056616C69642054414707
:100FAA0021204465667573696E67206C616E646D95
:100FBA00696E652E2E2E00496E76616C6964205426
:100FCA00414721204C616E646D696E652072656DC2
:0E0FDA0061696E73206163746976652E000094
:00000001FF
